{
  "contractName": "Voting",
  "abi": [
    {
      "anonymous": false,
      "inputs": [
        {
          "indexed": true,
          "internalType": "address",
          "name": "previousOwner",
          "type": "address"
        },
        {
          "indexed": true,
          "internalType": "address",
          "name": "newOwner",
          "type": "address"
        }
      ],
      "name": "OwnershipTransferred",
      "type": "event"
    },
    {
      "anonymous": false,
      "inputs": [
        {
          "indexed": false,
          "internalType": "uint256",
          "name": "proposalId",
          "type": "uint256"
        }
      ],
      "name": "ProposalRegistered",
      "type": "event"
    },
    {
      "anonymous": false,
      "inputs": [
        {
          "indexed": false,
          "internalType": "address",
          "name": "voter",
          "type": "address"
        },
        {
          "indexed": false,
          "internalType": "uint256",
          "name": "proposalId",
          "type": "uint256"
        }
      ],
      "name": "Voted",
      "type": "event"
    },
    {
      "anonymous": false,
      "inputs": [
        {
          "indexed": false,
          "internalType": "address",
          "name": "voterAddress",
          "type": "address"
        }
      ],
      "name": "VoterRegistered",
      "type": "event"
    },
    {
      "anonymous": false,
      "inputs": [
        {
          "indexed": false,
          "internalType": "enum Voting.WorkflowStatus",
          "name": "previousStatus",
          "type": "uint8"
        },
        {
          "indexed": false,
          "internalType": "enum Voting.WorkflowStatus",
          "name": "newStatus",
          "type": "uint8"
        }
      ],
      "name": "WorkflowStatusChange",
      "type": "event"
    },
    {
      "inputs": [
        {
          "internalType": "address",
          "name": "",
          "type": "address"
        }
      ],
      "name": "_whitelist",
      "outputs": [
        {
          "internalType": "bool",
          "name": "",
          "type": "bool"
        }
      ],
      "stateMutability": "view",
      "type": "function",
      "constant": true
    },
    {
      "inputs": [
        {
          "internalType": "uint256",
          "name": "",
          "type": "uint256"
        }
      ],
      "name": "addresses",
      "outputs": [
        {
          "internalType": "address",
          "name": "",
          "type": "address"
        }
      ],
      "stateMutability": "view",
      "type": "function",
      "constant": true
    },
    {
      "inputs": [],
      "name": "currentStatus",
      "outputs": [
        {
          "internalType": "enum Voting.WorkflowStatus",
          "name": "",
          "type": "uint8"
        }
      ],
      "stateMutability": "view",
      "type": "function",
      "constant": true
    },
    {
      "inputs": [],
      "name": "numberOfProposals",
      "outputs": [
        {
          "internalType": "uint256",
          "name": "",
          "type": "uint256"
        }
      ],
      "stateMutability": "view",
      "type": "function",
      "constant": true
    },
    {
      "inputs": [],
      "name": "owner",
      "outputs": [
        {
          "internalType": "address",
          "name": "",
          "type": "address"
        }
      ],
      "stateMutability": "view",
      "type": "function",
      "constant": true
    },
    {
      "inputs": [
        {
          "internalType": "uint256",
          "name": "",
          "type": "uint256"
        }
      ],
      "name": "proposals",
      "outputs": [
        {
          "internalType": "string",
          "name": "description",
          "type": "string"
        },
        {
          "internalType": "uint256",
          "name": "voteCount",
          "type": "uint256"
        }
      ],
      "stateMutability": "view",
      "type": "function",
      "constant": true
    },
    {
      "inputs": [],
      "name": "renounceOwnership",
      "outputs": [],
      "stateMutability": "nonpayable",
      "type": "function"
    },
    {
      "inputs": [
        {
          "internalType": "address",
          "name": "newOwner",
          "type": "address"
        }
      ],
      "name": "transferOwnership",
      "outputs": [],
      "stateMutability": "nonpayable",
      "type": "function"
    },
    {
      "inputs": [
        {
          "internalType": "address",
          "name": "",
          "type": "address"
        }
      ],
      "name": "voters",
      "outputs": [
        {
          "internalType": "bool",
          "name": "isRegistered",
          "type": "bool"
        },
        {
          "internalType": "bool",
          "name": "hasVoted",
          "type": "bool"
        },
        {
          "internalType": "uint256",
          "name": "votedProposalId",
          "type": "uint256"
        }
      ],
      "stateMutability": "view",
      "type": "function",
      "constant": true
    },
    {
      "inputs": [],
      "name": "winnerId",
      "outputs": [
        {
          "internalType": "uint256",
          "name": "",
          "type": "uint256"
        }
      ],
      "stateMutability": "view",
      "type": "function",
      "constant": true
    },
    {
      "inputs": [
        {
          "internalType": "address",
          "name": "_address",
          "type": "address"
        }
      ],
      "name": "isWhitelisted",
      "outputs": [],
      "stateMutability": "nonpayable",
      "type": "function"
    },
    {
      "inputs": [],
      "name": "getAddresses",
      "outputs": [
        {
          "internalType": "address[]",
          "name": "",
          "type": "address[]"
        }
      ],
      "stateMutability": "view",
      "type": "function",
      "constant": true
    },
    {
      "inputs": [],
      "name": "startProposalRegistration",
      "outputs": [],
      "stateMutability": "nonpayable",
      "type": "function"
    },
    {
      "inputs": [
        {
          "internalType": "string",
          "name": "_proposal",
          "type": "string"
        }
      ],
      "name": "depositProposal",
      "outputs": [],
      "stateMutability": "nonpayable",
      "type": "function"
    },
    {
      "inputs": [],
      "name": "getArrayOfProposals",
      "outputs": [
        {
          "components": [
            {
              "internalType": "string",
              "name": "description",
              "type": "string"
            },
            {
              "internalType": "uint256",
              "name": "voteCount",
              "type": "uint256"
            }
          ],
          "internalType": "struct Voting.Proposal[]",
          "name": "",
          "type": "tuple[]"
        }
      ],
      "stateMutability": "view",
      "type": "function",
      "constant": true
    },
    {
      "inputs": [],
      "name": "endProposalRegistration",
      "outputs": [],
      "stateMutability": "nonpayable",
      "type": "function"
    },
    {
      "inputs": [],
      "name": "startVotingSession",
      "outputs": [],
      "stateMutability": "nonpayable",
      "type": "function"
    },
    {
      "inputs": [
        {
          "internalType": "uint256",
          "name": "_proposalId",
          "type": "uint256"
        }
      ],
      "name": "voteFor",
      "outputs": [],
      "stateMutability": "nonpayable",
      "type": "function"
    },
    {
      "inputs": [],
      "name": "endVotingSession",
      "outputs": [],
      "stateMutability": "nonpayable",
      "type": "function"
    },
    {
      "inputs": [],
      "name": "countedVotes",
      "outputs": [],
      "stateMutability": "nonpayable",
      "type": "function"
    },
    {
      "inputs": [],
      "name": "getWinner",
      "outputs": [
        {
          "internalType": "uint256",
          "name": "",
          "type": "uint256"
        }
      ],
      "stateMutability": "view",
      "type": "function",
      "constant": true
    }
  ],
  "bytecode": "0x608060405260008060146101000a81548160ff021916908360058111156200002c576200002b62000131565b5b02179055503480156200003e57600080fd5b506200005f620000536200006560201b60201c565b6200006d60201b60201c565b62000160565b600033905090565b60008060009054906101000a900473ffffffffffffffffffffffffffffffffffffffff169050816000806101000a81548173ffffffffffffffffffffffffffffffffffffffff021916908373ffffffffffffffffffffffffffffffffffffffff1602179055508173ffffffffffffffffffffffffffffffffffffffff168173ffffffffffffffffffffffffffffffffffffffff167f8be0079c531659141344cd1fd0a4f28419497f9722a3daafe3b4186f6b6457e060405160405180910390a35050565b7f4e487b7100000000000000000000000000000000000000000000000000000000600052602160045260246000fd5b612a5f80620001706000396000f3fe608060405234801561001057600080fd5b50600436106101375760003560e01c8063a2877d37116100b8578063cfdb63ac1161007c578063cfdb63ac146102cf578063e85a8f2a146102ff578063edf26d9b14610309578063ee74c67814610339578063ef8a923514610343578063f2fde38b1461036157610137565b8063a2877d371461023b578063a39fac1214610257578063a3ec138d14610275578063a7bfab16146102a7578063af70fcd9146102b157610137565b806386a50535116100ff57806386a50535146101a75780638d7af473146101c35780638da5cb5b146101e15780638e7ea5b2146101ff57806391e0d5931461021d57610137565b8063013cf08b1461013c5780630f7e28381461016d578063213666a7146101775780633af32abf14610181578063715018a61461019d575b600080fd5b610156600480360381019061015191906119b8565b61037d565b604051610164929190611a8d565b60405180910390f35b610175610439565b005b61017f610593565b005b61019b60048036038101906101969190611b1b565b610774565b005b6101a56109ed565b005b6101c160048036038101906101bc91906119b8565b610a75565b005b6101cb610d70565b6040516101d89190611b48565b60405180910390f35b6101e9610d76565b6040516101f69190611b72565b60405180910390f35b610207610d9f565b6040516102149190611b48565b60405180910390f35b610225610e1e565b6040516102329190611b48565b60405180910390f35b61025560048036038101906102509190611bf2565b610e24565b005b61025f611035565b60405161026c9190611cfd565b60405180910390f35b61028f600480360381019061028a9190611b1b565b6110c3565b60405161029e93929190611d3a565b60405180910390f35b6102af611107565b005b6102b9611261565b6040516102c69190611ec9565b60405180910390f35b6102e960048036038101906102e49190611b1b565b6113d2565b6040516102f69190611eeb565b60405180910390f35b6103076113f2565b005b610323600480360381019061031e91906119b8565b61154c565b6040516103309190611b72565b60405180910390f35b61034161158b565b005b61034b6116e5565b6040516103589190611f7d565b60405180910390f35b61037b60048036038101906103769190611b1b565b6116f8565b005b6004818154811061038d57600080fd5b90600052602060002090600202016000915090508060000180546103b090611fc7565b80601f01602080910402602001604051908101604052809291908181526020018280546103dc90611fc7565b80156104295780601f106103fe57610100808354040283529160200191610429565b820191906000526020600020905b81548152906001019060200180831161040c57829003601f168201915b5050505050908060010154905082565b6104416117ef565b73ffffffffffffffffffffffffffffffffffffffff1661045f610d76565b73ffffffffffffffffffffffffffffffffffffffff16146104b5576040517f08c379a00000000000000000000000000000000000000000000000000000000081526004016104ac90612044565b60405180910390fd5b600060058111156104c9576104c8611f06565b5b600060149054906101000a900460ff1660058111156104eb576104ea611f06565b5b1461052b576040517f08c379a0000000000000000000000000000000000000000000000000000000008152600401610522906120fc565b60405180910390fd5b6001600060146101000a81548160ff0219169083600581111561055157610550611f06565b5b02179055507f0a97a4ee45751e2abf3e4fc8946939630b11b371ea8ae39ccdc3056e98f5cc3f6000600160405161058992919061211c565b60405180910390a1565b61059b6117ef565b73ffffffffffffffffffffffffffffffffffffffff166105b9610d76565b73ffffffffffffffffffffffffffffffffffffffff161461060f576040517f08c379a000000000000000000000000000000000000000000000000000000000815260040161060690612044565b60405180910390fd5b6004600581111561062357610622611f06565b5b600060149054906101000a900460ff16600581111561064557610644611f06565b5b14610685576040517f08c379a000000000000000000000000000000000000000000000000000000000815260040161067c906121dd565b60405180910390fd5b600080600090505b60048054905081101561070a5781600482815481106106af576106ae6121fd565b5b90600052602060002090600202016001015411156106f757600481815481106106db576106da6121fd565b5b9060005260206000209060020201600101549150806006819055505b80806107029061225b565b91505061068d565b506005600060146101000a81548160ff0219169083600581111561073157610730611f06565b5b02179055507f0a97a4ee45751e2abf3e4fc8946939630b11b371ea8ae39ccdc3056e98f5cc3f6004600560405161076992919061211c565b60405180910390a150565b61077c6117ef565b73ffffffffffffffffffffffffffffffffffffffff1661079a610d76565b73ffffffffffffffffffffffffffffffffffffffff16146107f0576040517f08c379a00000000000000000000000000000000000000000000000000000000081526004016107e790612044565b60405180910390fd5b6000600581111561080457610803611f06565b5b600060149054906101000a900460ff16600581111561082657610825611f06565b5b14610866576040517f08c379a000000000000000000000000000000000000000000000000000000000815260040161085d90612315565b60405180910390fd5b600160008273ffffffffffffffffffffffffffffffffffffffff1673ffffffffffffffffffffffffffffffffffffffff16815260200190815260200160002060000160009054906101000a900460ff16156108f6576040517f08c379a00000000000000000000000000000000000000000000000000000000081526004016108ed906123a7565b60405180910390fd5b60018060008373ffffffffffffffffffffffffffffffffffffffff1673ffffffffffffffffffffffffffffffffffffffff16815260200190815260200160002060000160006101000a81548160ff0219169083151502179055506003819080600181540180825580915050600190039060005260206000200160009091909190916101000a81548173ffffffffffffffffffffffffffffffffffffffff021916908373ffffffffffffffffffffffffffffffffffffffff1602179055507fb6be2187d059cc2a55fe29e0e503b566e1e0f8c8780096e185429350acffd3dd816040516109e29190611b72565b60405180910390a150565b6109f56117ef565b73ffffffffffffffffffffffffffffffffffffffff16610a13610d76565b73ffffffffffffffffffffffffffffffffffffffff1614610a69576040517f08c379a0000000000000000000000000000000000000000000000000000000008152600401610a6090612044565b60405180910390fd5b610a7360006117f7565b565b60011515600160003373ffffffffffffffffffffffffffffffffffffffff1673ffffffffffffffffffffffffffffffffffffffff16815260200190815260200160002060000160009054906101000a900460ff16151514610b0b576040517f08c379a0000000000000000000000000000000000000000000000000000000008152600401610b0290612413565b60405180910390fd5b60036005811115610b1f57610b1e611f06565b5b600060149054906101000a900460ff166005811115610b4157610b40611f06565b5b14610b81576040517f08c379a0000000000000000000000000000000000000000000000000000000008152600401610b78906124a5565b60405180910390fd5b600160003373ffffffffffffffffffffffffffffffffffffffff1673ffffffffffffffffffffffffffffffffffffffff16815260200190815260200160002060000160019054906101000a900460ff1615610c11576040517f08c379a0000000000000000000000000000000000000000000000000000000008152600401610c0890612511565b60405180910390fd5b600554811115610c56576040517f08c379a0000000000000000000000000000000000000000000000000000000008152600401610c4d9061257d565b60405180910390fd5b600160048281548110610c6c57610c6b6121fd565b5b90600052602060002090600202016001016000828254610c8c919061259d565b9250508190555060018060003373ffffffffffffffffffffffffffffffffffffffff1673ffffffffffffffffffffffffffffffffffffffff16815260200190815260200160002060000160016101000a81548160ff02191690831515021790555080600160003373ffffffffffffffffffffffffffffffffffffffff1673ffffffffffffffffffffffffffffffffffffffff168152602001908152602001600020600101819055507f4d99b957a2bc29a30ebd96a7be8e68fe50a3c701db28a91436490b7d53870ca43382604051610d659291906125f3565b60405180910390a150565b60055481565b60008060009054906101000a900473ffffffffffffffffffffffffffffffffffffffff16905090565b6000600580811115610db457610db3611f06565b5b600060149054906101000a900460ff166005811115610dd657610dd5611f06565b5b14610e16576040517f08c379a0000000000000000000000000000000000000000000000000000000008152600401610e0d9061268e565b60405180910390fd5b600654905090565b60065481565b60011515600160003373ffffffffffffffffffffffffffffffffffffffff1673ffffffffffffffffffffffffffffffffffffffff16815260200190815260200160002060000160009054906101000a900460ff16151514610eba576040517f08c379a0000000000000000000000000000000000000000000000000000000008152600401610eb190612413565b60405180910390fd5b60016005811115610ece57610ecd611f06565b5b600060149054906101000a900460ff166005811115610ef057610eef611f06565b5b14610f30576040517f08c379a0000000000000000000000000000000000000000000000000000000008152600401610f2790612720565b60405180910390fd5b6004604051806040016040528084848080601f016020809104026020016040519081016040528093929190818152602001838380828437600081840152601f19601f820116905080830192505050505050508152602001600081525090806001815401808255809150506001900390600052602060002090600202016000909190919091506000820151816000019080519060200190610fd19291906118bb565b506020820151816001015550507f92e393e9b54e2f801d3ea4beb0c5e71a21cc34a5d34b77d0fb8a3aa1650dc18f60055460405161100f9190611b48565b60405180910390a160016005600082825461102a919061259d565b925050819055505050565b606060038054806020026020016040519081016040528092919081815260200182805480156110b957602002820191906000526020600020905b8160009054906101000a900473ffffffffffffffffffffffffffffffffffffffff1673ffffffffffffffffffffffffffffffffffffffff168152602001906001019080831161106f575b5050505050905090565b60016020528060005260406000206000915090508060000160009054906101000a900460ff16908060000160019054906101000a900460ff16908060010154905083565b61110f6117ef565b73ffffffffffffffffffffffffffffffffffffffff1661112d610d76565b73ffffffffffffffffffffffffffffffffffffffff1614611183576040517f08c379a000000000000000000000000000000000000000000000000000000000815260040161117a90612044565b60405180910390fd5b6003600581111561119757611196611f06565b5b600060149054906101000a900460ff1660058111156111b9576111b8611f06565b5b146111f9576040517f08c379a00000000000000000000000000000000000000000000000000000000081526004016111f0906127d8565b60405180910390fd5b6004600060146101000a81548160ff0219169083600581111561121f5761121e611f06565b5b02179055507f0a97a4ee45751e2abf3e4fc8946939630b11b371ea8ae39ccdc3056e98f5cc3f6003600460405161125792919061211c565b60405180910390a1565b6060600060048054905067ffffffffffffffff811115611284576112836127f8565b5b6040519080825280602002602001820160405280156112bd57816020015b6112aa611941565b8152602001906001900390816112a25790505b50905060005b6004805490508110156113ca57600481815481106112e4576112e36121fd565b5b906000526020600020906002020160405180604001604052908160008201805461130d90611fc7565b80601f016020809104026020016040519081016040528092919081815260200182805461133990611fc7565b80156113865780601f1061135b57610100808354040283529160200191611386565b820191906000526020600020905b81548152906001019060200180831161136957829003601f168201915b505050505081526020016001820154815250508282815181106113ac576113ab6121fd565b5b602002602001018190525080806113c29061225b565b9150506112c3565b508091505090565b60026020528060005260406000206000915054906101000a900460ff1681565b6113fa6117ef565b73ffffffffffffffffffffffffffffffffffffffff16611418610d76565b73ffffffffffffffffffffffffffffffffffffffff161461146e576040517f08c379a000000000000000000000000000000000000000000000000000000000815260040161146590612044565b60405180910390fd5b6001600581111561148257611481611f06565b5b600060149054906101000a900460ff1660058111156114a4576114a3611f06565b5b146114e4576040517f08c379a00000000000000000000000000000000000000000000000000000000081526004016114db906128bf565b60405180910390fd5b6002600060146101000a81548160ff0219169083600581111561150a57611509611f06565b5b02179055507f0a97a4ee45751e2abf3e4fc8946939630b11b371ea8ae39ccdc3056e98f5cc3f6001600260405161154292919061211c565b60405180910390a1565b6003818154811061155c57600080fd5b906000526020600020016000915054906101000a900473ffffffffffffffffffffffffffffffffffffffff1681565b6115936117ef565b73ffffffffffffffffffffffffffffffffffffffff166115b1610d76565b73ffffffffffffffffffffffffffffffffffffffff1614611607576040517f08c379a00000000000000000000000000000000000000000000000000000000081526004016115fe90612044565b60405180910390fd5b6002600581111561161b5761161a611f06565b5b600060149054906101000a900460ff16600581111561163d5761163c611f06565b5b1461167d576040517f08c379a000000000000000000000000000000000000000000000000000000000815260040161167490612977565b60405180910390fd5b6003600060146101000a81548160ff021916908360058111156116a3576116a2611f06565b5b02179055507f0a97a4ee45751e2abf3e4fc8946939630b11b371ea8ae39ccdc3056e98f5cc3f600260036040516116db92919061211c565b60405180910390a1565b600060149054906101000a900460ff1681565b6117006117ef565b73ffffffffffffffffffffffffffffffffffffffff1661171e610d76565b73ffffffffffffffffffffffffffffffffffffffff1614611774576040517f08c379a000000000000000000000000000000000000000000000000000000000815260040161176b90612044565b60405180910390fd5b600073ffffffffffffffffffffffffffffffffffffffff168173ffffffffffffffffffffffffffffffffffffffff16036117e3576040517f08c379a00000000000000000000000000000000000000000000000000000000081526004016117da90612a09565b60405180910390fd5b6117ec816117f7565b50565b600033905090565b60008060009054906101000a900473ffffffffffffffffffffffffffffffffffffffff169050816000806101000a81548173ffffffffffffffffffffffffffffffffffffffff021916908373ffffffffffffffffffffffffffffffffffffffff1602179055508173ffffffffffffffffffffffffffffffffffffffff168173ffffffffffffffffffffffffffffffffffffffff167f8be0079c531659141344cd1fd0a4f28419497f9722a3daafe3b4186f6b6457e060405160405180910390a35050565b8280546118c790611fc7565b90600052602060002090601f0160209004810192826118e95760008555611930565b82601f1061190257805160ff1916838001178555611930565b82800160010185558215611930579182015b8281111561192f578251825591602001919060010190611914565b5b50905061193d919061195b565b5090565b604051806040016040528060608152602001600081525090565b5b8082111561197457600081600090555060010161195c565b5090565b600080fd5b600080fd5b6000819050919050565b61199581611982565b81146119a057600080fd5b50565b6000813590506119b28161198c565b92915050565b6000602082840312156119ce576119cd611978565b5b60006119dc848285016119a3565b91505092915050565b600081519050919050565b600082825260208201905092915050565b60005b83811015611a1f578082015181840152602081019050611a04565b83811115611a2e576000848401525b50505050565b6000601f19601f8301169050919050565b6000611a50826119e5565b611a5a81856119f0565b9350611a6a818560208601611a01565b611a7381611a34565b840191505092915050565b611a8781611982565b82525050565b60006040820190508181036000830152611aa78185611a45565b9050611ab66020830184611a7e565b9392505050565b600073ffffffffffffffffffffffffffffffffffffffff82169050919050565b6000611ae882611abd565b9050919050565b611af881611add565b8114611b0357600080fd5b50565b600081359050611b1581611aef565b92915050565b600060208284031215611b3157611b30611978565b5b6000611b3f84828501611b06565b91505092915050565b6000602082019050611b5d6000830184611a7e565b92915050565b611b6c81611add565b82525050565b6000602082019050611b876000830184611b63565b92915050565b600080fd5b600080fd5b600080fd5b60008083601f840112611bb257611bb1611b8d565b5b8235905067ffffffffffffffff811115611bcf57611bce611b92565b5b602083019150836001820283011115611beb57611bea611b97565b5b9250929050565b60008060208385031215611c0957611c08611978565b5b600083013567ffffffffffffffff811115611c2757611c2661197d565b5b611c3385828601611b9c565b92509250509250929050565b600081519050919050565b600082825260208201905092915050565b6000819050602082019050919050565b611c7481611add565b82525050565b6000611c868383611c6b565b60208301905092915050565b6000602082019050919050565b6000611caa82611c3f565b611cb48185611c4a565b9350611cbf83611c5b565b8060005b83811015611cf0578151611cd78882611c7a565b9750611ce283611c92565b925050600181019050611cc3565b5085935050505092915050565b60006020820190508181036000830152611d178184611c9f565b905092915050565b60008115159050919050565b611d3481611d1f565b82525050565b6000606082019050611d4f6000830186611d2b565b611d5c6020830185611d2b565b611d696040830184611a7e565b949350505050565b600081519050919050565b600082825260208201905092915050565b6000819050602082019050919050565b600082825260208201905092915050565b6000611db9826119e5565b611dc38185611d9d565b9350611dd3818560208601611a01565b611ddc81611a34565b840191505092915050565b611df081611982565b82525050565b60006040830160008301518482036000860152611e138282611dae565b9150506020830151611e286020860182611de7565b508091505092915050565b6000611e3f8383611df6565b905092915050565b6000602082019050919050565b6000611e5f82611d71565b611e698185611d7c565b935083602082028501611e7b85611d8d565b8060005b85811015611eb75784840389528151611e988582611e33565b9450611ea383611e47565b925060208a01995050600181019050611e7f565b50829750879550505050505092915050565b60006020820190508181036000830152611ee38184611e54565b905092915050565b6000602082019050611f006000830184611d2b565b92915050565b7f4e487b7100000000000000000000000000000000000000000000000000000000600052602160045260246000fd5b60068110611f4657611f45611f06565b5b50565b6000819050611f5782611f35565b919050565b6000611f6782611f49565b9050919050565b611f7781611f5c565b82525050565b6000602082019050611f926000830184611f6e565b92915050565b7f4e487b7100000000000000000000000000000000000000000000000000000000600052602260045260246000fd5b60006002820490506001821680611fdf57607f821691505b602082108103611ff257611ff1611f98565b5b50919050565b7f4f776e61626c653a2063616c6c6572206973206e6f7420746865206f776e6572600082015250565b600061202e6020836119f0565b915061203982611ff8565b602082019050919050565b6000602082019050818103600083015261205d81612021565b9050919050565b7f7468652063757272656e7420776f726b666c6f772073746174757320646f657360008201527f206e6f7420616c6c6f7720796f7520746f20737461727420726567697374657260208201527f696e672070726f706f73616c7300000000000000000000000000000000000000604082015250565b60006120e6604d836119f0565b91506120f182612064565b606082019050919050565b60006020820190508181036000830152612115816120d9565b9050919050565b60006040820190506121316000830185611f6e565b61213e6020830184611f6e565b9392505050565b7f7468652063757272656e7420776f726b666c6f772073746174757320646f657360008201527f206e6f7420616c6c6f7720796f7520746f20636f756e7465642074686520766f60208201527f7465730000000000000000000000000000000000000000000000000000000000604082015250565b60006121c76043836119f0565b91506121d282612145565b606082019050919050565b600060208201905081810360008301526121f6816121ba565b9050919050565b7f4e487b7100000000000000000000000000000000000000000000000000000000600052603260045260246000fd5b7f4e487b7100000000000000000000000000000000000000000000000000000000600052601160045260246000fd5b600061226682611982565b91507fffffffffffffffffffffffffffffffffffffffffffffffffffffffffffffffff82036122985761229761222c565b5b600182019050919050565b7f74686520726567697374726174696f6e20706572696f6420666f72207468652060008201527f77686974656c697374206973206f766572000000000000000000000000000000602082015250565b60006122ff6031836119f0565b915061230a826122a3565b604082019050919050565b6000602082019050818103600083015261232e816122f2565b9050919050565b7f5468697320766f7465727320697320616c72656164792072656769737465726560008201527f6400000000000000000000000000000000000000000000000000000000000000602082015250565b60006123916021836119f0565b915061239c82612335565b604082019050919050565b600060208201905081810360008301526123c081612384565b9050919050565b7f746869732061646472657373206973206e6f742077686974656c697374656400600082015250565b60006123fd601f836119f0565b9150612408826123c7565b602082019050919050565b6000602082019050818103600083015261242c816123f0565b9050919050565b7f7468652063757272656e7420776f726b666c6f772073746174757320646f657360008201527f206e6f7420616c6c6f7720796f7520746f20766f746500000000000000000000602082015250565b600061248f6036836119f0565b915061249a82612433565b604082019050919050565b600060208201905081810360008301526124be81612482565b9050919050565b7f7468697320616464726573732068617320616c726561647920766f7465640000600082015250565b60006124fb601e836119f0565b9150612506826124c5565b602082019050919050565b6000602082019050818103600083015261252a816124ee565b9050919050565b7f746869732070726f706f73616c20646f6573206e6f7420657873697400000000600082015250565b6000612567601c836119f0565b915061257282612531565b602082019050919050565b600060208201905081810360008301526125968161255a565b9050919050565b60006125a882611982565b91506125b383611982565b9250827fffffffffffffffffffffffffffffffffffffffffffffffffffffffffffffffff038211156125e8576125e761222c565b5b828201905092915050565b60006040820190506126086000830185611b63565b6126156020830184611a7e565b9392505050565b7f7468652063757272656e7420776f726b666c6f772073746174757320646f657360008201527f206e6f7420616c6c6f7720796f7520746f20676574207468652077696e6e6572602082015250565b60006126786040836119f0565b91506126838261261c565b604082019050919050565b600060208201905081810360008301526126a78161266b565b9050919050565b7f726567697374726174696f6e206f662070726f706f73616c73206973206e6f7460008201527f20616c7265616479206f70656e206f7220616c726561647920636c6f73650000602082015250565b600061270a603e836119f0565b9150612715826126ae565b604082019050919050565b60006020820190508181036000830152612739816126fd565b9050919050565b7f7468652063757272656e7420776f726b666c6f772073746174757320646f657360008201527f206e6f7420616c6c6f7720796f7520746f2073746f7020766f74696e6720736560208201527f7373696f6e000000000000000000000000000000000000000000000000000000604082015250565b60006127c26045836119f0565b91506127cd82612740565b606082019050919050565b600060208201905081810360008301526127f1816127b5565b9050919050565b7f4e487b7100000000000000000000000000000000000000000000000000000000600052604160045260246000fd5b7f7468652063757272656e7420776f726b666c6f772073746174757320646f657360008201527f206e6f7420616c6c6f7720796f7520746f2073746f702072656769737465726960208201527f6e672070726f706f73616c730000000000000000000000000000000000000000604082015250565b60006128a9604c836119f0565b91506128b482612827565b606082019050919050565b600060208201905081810360008301526128d88161289c565b9050919050565b7f7468652063757272656e7420776f726b666c6f772073746174757320646f657360008201527f206e6f7420616c6c6f7720796f7520746f20737461727420766f74696e67207360208201527f657373696f6e0000000000000000000000000000000000000000000000000000604082015250565b60006129616046836119f0565b915061296c826128df565b606082019050919050565b6000602082019050818103600083015261299081612954565b9050919050565b7f4f776e61626c653a206e6577206f776e657220697320746865207a65726f206160008201527f6464726573730000000000000000000000000000000000000000000000000000602082015250565b60006129f36026836119f0565b91506129fe82612997565b604082019050919050565b60006020820190508181036000830152612a22816129e6565b905091905056fea264697066735822122074d597e6b8ac0dec53b9f83e4ca99dcf33066158df92594f07a827d2d1e85d3364736f6c634300080d0033",
  "immutableReferences": {},
  "source": "// SPDX-License-Identifier: MIT\r\n\r\npragma solidity 0.8.13;\r\nimport \"../client/node_modules/@openzeppelin/contracts/access/Ownable.sol\";\r\n\r\n/// @title Systeme de Vote\r\n/// @author jw418\r\n/// @notice You can use this contract for only the most basic simulation\r\n/// @dev seul le owner peut ajouter des addresses a la WL ou changer le workflow status.\r\n/// @custom:experimental This is an experimental contract.(Formation Digitt)\r\ncontract Voting is Ownable {\r\n\r\n    struct Voter {\r\n        bool isRegistered;  // if true, that person already on the whitelist\r\n        bool hasVoted;  // if true, that person already voted\r\n        uint256 votedProposalId;  // index of the voted proposal\r\n    }\r\n\r\n    struct Proposal {\r\n        string description;  // descripton de la proposition\r\n        uint256 voteCount; //  number of accumulated votes\r\n    }\r\n\r\n    /// @dev le workflow status ne va que dans un seul sens (pas de boucle possible)\r\n    enum WorkflowStatus {\r\n        RegisteringVoters,\r\n        ProposalsRegistrationStarted,\r\n        ProposalsRegistrationEnded,\r\n        VotingSessionStarted,\r\n        VotingSessionEnded,\r\n        VotesTallied\r\n    }\r\n\r\n    /// @dev on met le workflow statut sur l etape 1\r\n    WorkflowStatus public currentStatus = WorkflowStatus.RegisteringVoters;\r\n\r\n    mapping(address => Voter) public voters;\r\n    mapping(address=> bool) public _whitelist;\r\n    address[] public addresses;\r\n    Proposal[] public proposals;\r\n    uint256 public numberOfProposals;\r\n    uint256 public winnerId;\r\n\r\n    // les event pour transmettre au front\r\n    event VoterRegistered(address voterAddress);    \r\n    event WorkflowStatusChange(WorkflowStatus previousStatus,\r\n    WorkflowStatus newStatus);\r\n    event ProposalRegistered(uint256 proposalId);    \r\n    event Voted(address voter, uint256 proposalId);\r\n\r\n    \r\n    /// @notice pour ajouter des addresses a la WL\r\n    /// @param _address address a ajout a la WL\r\n    function isWhitelisted(address _address) external onlyOwner {                \r\n        require(currentStatus == WorkflowStatus.RegisteringVoters,\"the registration period for the whitelist is over\");\r\n        require(!voters[_address].isRegistered,\"This voters is already registered\");\r\n        \r\n        voters[_address].isRegistered = true;\r\n        addresses.push(_address);\r\n        \r\n        emit VoterRegistered(_address);\r\n    }\r\n\r\n    /// @notice obtenir la liste des adresses sur la WL\r\n    function getAddresses() public view returns(address[] memory){\r\n        return addresses;\r\n    }\r\n\r\n    /// @notice pour demarrer l'enregistrement des propositions\r\n    /// @dev une fois la fonction appele le statut change, on ne peut donc plus ajouter d addreses a la WL!!\r\n    function startProposalRegistration() external onlyOwner {\r\n        require(currentStatus == WorkflowStatus.RegisteringVoters,\"the current workflow status does not allow you to start registering proposals\");\r\n        \r\n        currentStatus = WorkflowStatus.ProposalsRegistrationStarted;\r\n        \r\n        emit WorkflowStatusChange(WorkflowStatus.RegisteringVoters, WorkflowStatus.ProposalsRegistrationStarted);\r\n    }\r\n\r\n    /// @notice pour dposer des propositions\r\n    /// @param _proposal string qui contient la description de la proposition\r\n    function depositProposal(string calldata _proposal) external {\r\n        require(voters[msg.sender].isRegistered == true, \"this address is not whitelisted\");\r\n        require(currentStatus == WorkflowStatus.ProposalsRegistrationStarted, \r\n        \"registration of proposals is not already open or already close\");\r\n\r\n        proposals.push(Proposal({description: _proposal, voteCount: 0}));\r\n\r\n        emit ProposalRegistered(numberOfProposals);\r\n        numberOfProposals += 1;\r\n    }\r\n     /// @notice pour obtenir la liste des propositions et l'id associ\r\n     /// @return  arrayOfProposals tableau avec les propositions et leur id associs\r\n    function getArrayOfProposals() external view returns (Proposal[] memory) {\r\n        Proposal[] memory arrayOfProposals = new Proposal[](proposals.length);\r\n        for (uint256 i = 0; i < proposals.length; i++) {\r\n            arrayOfProposals[i] = proposals[i];\r\n        }\r\n        return arrayOfProposals;\r\n    }\r\n     /// @notice pour stoper l'enregistrement des propositions\r\n    function endProposalRegistration() external onlyOwner {\r\n        require(currentStatus == WorkflowStatus.ProposalsRegistrationStarted,\r\n        \"the current workflow status does not allow you to stop registering proposals\"\r\n        );\r\n        currentStatus = WorkflowStatus.ProposalsRegistrationEnded;\r\n        emit WorkflowStatusChange(WorkflowStatus.ProposalsRegistrationStarted, WorkflowStatus.ProposalsRegistrationEnded);\r\n    }\r\n\r\n    /// @notice pour demarrer la session de vote \r\n    function startVotingSession() external onlyOwner {\r\n        require(currentStatus == WorkflowStatus.ProposalsRegistrationEnded, \"the current workflow status does not allow you to start voting session\");\r\n        currentStatus = WorkflowStatus.VotingSessionStarted;\r\n        emit WorkflowStatusChange(\r\n            WorkflowStatus.ProposalsRegistrationEnded,\r\n            WorkflowStatus.VotingSessionStarted\r\n        );\r\n    }\r\n\r\n     /// @notice pour voter\r\n     /// @param _proposalId uint pour laquelle le votant vote\r\n    function voteFor(uint256 _proposalId) external {\r\n        require(voters[msg.sender].isRegistered == true, \"this address is not whitelisted\");\r\n        require(currentStatus == WorkflowStatus.VotingSessionStarted, \"the current workflow status does not allow you to vote\");\r\n        require(!voters[msg.sender].hasVoted, \"this address has already voted\");\r\n        require(_proposalId <= numberOfProposals, \"this proposal does not exsit\");\r\n\r\n        proposals[_proposalId].voteCount += 1;\r\n        voters[msg.sender].hasVoted = true;\r\n        voters[msg.sender].votedProposalId = _proposalId;\r\n\r\n        emit Voted(msg.sender, _proposalId);\r\n    }\r\n\r\n     /// @notice met fin a la session de vote\r\n    function endVotingSession() external onlyOwner {\r\n        require(currentStatus == WorkflowStatus.VotingSessionStarted, \"the current workflow status does not allow you to stop voting session\");\r\n        currentStatus = WorkflowStatus.VotingSessionEnded;\r\n        emit WorkflowStatusChange(\r\n            WorkflowStatus.VotingSessionStarted,\r\n            WorkflowStatus.VotingSessionEnded\r\n        );\r\n    }\r\n\r\n     /// @notice lance le comptage du vote\r\n    function countedVotes() external onlyOwner {\r\n        require(currentStatus == WorkflowStatus.VotingSessionEnded, \"the current workflow status does not allow you to counted the votes\");\r\n\r\n        uint256 voteMax;\r\n\r\n        for (uint256 i = 0; i < proposals.length; i++) {\r\n            // simplification, ne prends pas en compte la possibilit d'une gali\r\n            if (proposals[i].voteCount > voteMax) {\r\n                voteMax = proposals[i].voteCount;\r\n                winnerId = i;\r\n            }\r\n        }\r\n        currentStatus = WorkflowStatus.VotesTallied;\r\n        emit WorkflowStatusChange(WorkflowStatus.VotingSessionEnded, WorkflowStatus.VotesTallied);\r\n    }\r\n     /// @notice pour obtenir la proposition gagnante\r\n     /// @return  winnerIdAndDescription \r\n    function getWinner() external view returns (uint256) {\r\n        require(currentStatus == WorkflowStatus.VotesTallied,\"the current workflow status does not allow you to get the winner\");\r\n        return winnerId;\r\n    }\r\n}\r\n",
  "sourcePath": "C:\\Users\\juwol\\OneDrive\\Bureau\\dev\\eth\\alyra\\Rendu4\\contracts\\Voting.sol",
  "compiler": {
    "name": "solc",
    "version": "0.8.13+commit.abaa5c0e.Emscripten.clang"
  },
  "schemaVersion": "3.4.5",
  "updatedAt": "2022-03-30T10:58:38.892Z",
  "networkType": "ethereum",
  "devdoc": {
    "author": "jw418",
    "custom:experimental": "This is an experimental contract.(Formation Digitt)",
    "details": "seul le owner peut ajouter des addresses a la WL ou changer le workflow status.",
    "kind": "dev",
    "methods": {
      "depositProposal(string)": {
        "params": {
          "_proposal": "string qui contient la description de la proposition"
        }
      },
      "getArrayOfProposals()": {
        "returns": {
          "_0": "arrayOfProposals tableau avec les propositions et leur id associs"
        }
      },
      "getWinner()": {
        "returns": {
          "_0": "winnerIdAndDescription "
        }
      },
      "isWhitelisted(address)": {
        "params": {
          "_address": "address a ajout a la WL"
        }
      },
      "owner()": {
        "details": "Returns the address of the current owner."
      },
      "renounceOwnership()": {
        "details": "Leaves the contract without owner. It will not be possible to call `onlyOwner` functions anymore. Can only be called by the current owner. NOTE: Renouncing ownership will leave the contract without an owner, thereby removing any functionality that is only available to the owner."
      },
      "startProposalRegistration()": {
        "details": "une fois la fonction appele le statut change, on ne peut donc plus ajouter d addreses a la WL!!"
      },
      "transferOwnership(address)": {
        "details": "Transfers ownership of the contract to a new account (`newOwner`). Can only be called by the current owner."
      },
      "voteFor(uint256)": {
        "params": {
          "_proposalId": "uint pour laquelle le votant vote"
        }
      }
    },
    "stateVariables": {
      "currentStatus": {
        "details": "on met le workflow statut sur l etape 1"
      }
    },
    "title": "Systeme de Vote",
    "version": 1
  },
  "userdoc": {
    "kind": "user",
    "methods": {
      "countedVotes()": {
        "notice": "lance le comptage du vote"
      },
      "depositProposal(string)": {
        "notice": "pour dposer des propositions"
      },
      "endProposalRegistration()": {
        "notice": "pour stoper l'enregistrement des propositions"
      },
      "endVotingSession()": {
        "notice": "met fin a la session de vote"
      },
      "getAddresses()": {
        "notice": "obtenir la liste des adresses sur la WL"
      },
      "getArrayOfProposals()": {
        "notice": "pour obtenir la liste des propositions et l'id associ"
      },
      "getWinner()": {
        "notice": "pour obtenir la proposition gagnante"
      },
      "isWhitelisted(address)": {
        "notice": "pour ajouter des addresses a la WL"
      },
      "startProposalRegistration()": {
        "notice": "pour demarrer l'enregistrement des propositions"
      },
      "startVotingSession()": {
        "notice": "pour demarrer la session de vote "
      },
      "voteFor(uint256)": {
        "notice": "pour voter"
      }
    },
    "notice": "You can use this contract for only the most basic simulation",
    "version": 1
  }
}