{
  "contractName": "Voting",
  "abi": [
    {
      "anonymous": false,
      "inputs": [
        {
          "indexed": true,
          "internalType": "address",
          "name": "previousOwner",
          "type": "address"
        },
        {
          "indexed": true,
          "internalType": "address",
          "name": "newOwner",
          "type": "address"
        }
      ],
      "name": "OwnershipTransferred",
      "type": "event"
    },
    {
      "anonymous": false,
      "inputs": [
        {
          "indexed": false,
          "internalType": "uint256",
          "name": "proposalId",
          "type": "uint256"
        }
      ],
      "name": "ProposalRegistered",
      "type": "event"
    },
    {
      "anonymous": false,
      "inputs": [
        {
          "indexed": false,
          "internalType": "address",
          "name": "voter",
          "type": "address"
        },
        {
          "indexed": false,
          "internalType": "uint256",
          "name": "proposalId",
          "type": "uint256"
        }
      ],
      "name": "Voted",
      "type": "event"
    },
    {
      "anonymous": false,
      "inputs": [
        {
          "indexed": false,
          "internalType": "address",
          "name": "voterAddress",
          "type": "address"
        }
      ],
      "name": "VoterRegistered",
      "type": "event"
    },
    {
      "anonymous": false,
      "inputs": [
        {
          "indexed": false,
          "internalType": "enum Voting.WorkflowStatus",
          "name": "previousStatus",
          "type": "uint8"
        },
        {
          "indexed": false,
          "internalType": "enum Voting.WorkflowStatus",
          "name": "newStatus",
          "type": "uint8"
        }
      ],
      "name": "WorkflowStatusChange",
      "type": "event"
    },
    {
      "inputs": [],
      "name": "currentStatus",
      "outputs": [
        {
          "internalType": "enum Voting.WorkflowStatus",
          "name": "",
          "type": "uint8"
        }
      ],
      "stateMutability": "view",
      "type": "function",
      "constant": true
    },
    {
      "inputs": [],
      "name": "numberOfProposals",
      "outputs": [
        {
          "internalType": "uint256",
          "name": "",
          "type": "uint256"
        }
      ],
      "stateMutability": "view",
      "type": "function",
      "constant": true
    },
    {
      "inputs": [],
      "name": "owner",
      "outputs": [
        {
          "internalType": "address",
          "name": "",
          "type": "address"
        }
      ],
      "stateMutability": "view",
      "type": "function",
      "constant": true
    },
    {
      "inputs": [
        {
          "internalType": "uint256",
          "name": "",
          "type": "uint256"
        }
      ],
      "name": "proposals",
      "outputs": [
        {
          "internalType": "string",
          "name": "description",
          "type": "string"
        },
        {
          "internalType": "uint256",
          "name": "voteCount",
          "type": "uint256"
        }
      ],
      "stateMutability": "view",
      "type": "function",
      "constant": true
    },
    {
      "inputs": [],
      "name": "renounceOwnership",
      "outputs": [],
      "stateMutability": "nonpayable",
      "type": "function"
    },
    {
      "inputs": [
        {
          "internalType": "address",
          "name": "newOwner",
          "type": "address"
        }
      ],
      "name": "transferOwnership",
      "outputs": [],
      "stateMutability": "nonpayable",
      "type": "function"
    },
    {
      "inputs": [
        {
          "internalType": "address",
          "name": "",
          "type": "address"
        }
      ],
      "name": "voters",
      "outputs": [
        {
          "internalType": "bool",
          "name": "isRegistered",
          "type": "bool"
        },
        {
          "internalType": "bool",
          "name": "hasVoted",
          "type": "bool"
        },
        {
          "internalType": "uint256",
          "name": "votedProposalId",
          "type": "uint256"
        }
      ],
      "stateMutability": "view",
      "type": "function",
      "constant": true
    },
    {
      "inputs": [
        {
          "internalType": "address",
          "name": "_address",
          "type": "address"
        }
      ],
      "name": "isWhitelisted",
      "outputs": [],
      "stateMutability": "nonpayable",
      "type": "function"
    },
    {
      "inputs": [],
      "name": "startProposalRegistration",
      "outputs": [],
      "stateMutability": "nonpayable",
      "type": "function"
    },
    {
      "inputs": [
        {
          "internalType": "string",
          "name": "_proposal",
          "type": "string"
        }
      ],
      "name": "depositProposal",
      "outputs": [],
      "stateMutability": "nonpayable",
      "type": "function"
    },
    {
      "inputs": [],
      "name": "getArrayOfProposals",
      "outputs": [
        {
          "components": [
            {
              "internalType": "string",
              "name": "description",
              "type": "string"
            },
            {
              "internalType": "uint256",
              "name": "voteCount",
              "type": "uint256"
            }
          ],
          "internalType": "struct Voting.Proposal[]",
          "name": "",
          "type": "tuple[]"
        }
      ],
      "stateMutability": "view",
      "type": "function",
      "constant": true
    },
    {
      "inputs": [],
      "name": "endProposalRegistration",
      "outputs": [],
      "stateMutability": "nonpayable",
      "type": "function"
    },
    {
      "inputs": [],
      "name": "startVotingSession",
      "outputs": [],
      "stateMutability": "nonpayable",
      "type": "function"
    },
    {
      "inputs": [
        {
          "internalType": "uint256",
          "name": "_proposalId",
          "type": "uint256"
        }
      ],
      "name": "voteFor",
      "outputs": [],
      "stateMutability": "nonpayable",
      "type": "function"
    },
    {
      "inputs": [],
      "name": "endVotingSession",
      "outputs": [],
      "stateMutability": "nonpayable",
      "type": "function"
    },
    {
      "inputs": [],
      "name": "countedVotes",
      "outputs": [],
      "stateMutability": "nonpayable",
      "type": "function"
    },
    {
      "inputs": [],
      "name": "getWinner",
      "outputs": [
        {
          "internalType": "string",
          "name": "",
          "type": "string"
        },
        {
          "internalType": "uint256",
          "name": "",
          "type": "uint256"
        }
      ],
      "stateMutability": "view",
      "type": "function",
      "constant": true
    }
  ],
  "bytecode": "0x608060405260008060146101000a81548160ff021916908360058111156200002c576200002b62000131565b5b02179055503480156200003e57600080fd5b506200005f620000536200006560201b60201c565b6200006d60201b60201c565b62000160565b600033905090565b60008060009054906101000a900473ffffffffffffffffffffffffffffffffffffffff169050816000806101000a81548173ffffffffffffffffffffffffffffffffffffffff021916908373ffffffffffffffffffffffffffffffffffffffff1602179055508173ffffffffffffffffffffffffffffffffffffffff168173ffffffffffffffffffffffffffffffffffffffff167f8be0079c531659141344cd1fd0a4f28419497f9722a3daafe3b4186f6b6457e060405160405180910390a35050565b7f4e487b7100000000000000000000000000000000000000000000000000000000600052602160045260246000fd5b61282480620001706000396000f3fe608060405234801561001057600080fd5b506004361061010b5760003560e01c80638e7ea5b2116100a2578063af70fcd911610071578063af70fcd91461024a578063e85a8f2a14610268578063ee74c67814610272578063ef8a92351461027c578063f2fde38b1461029a5761010b565b80638e7ea5b2146101d3578063a2877d37146101f2578063a3ec138d1461020e578063a7bfab16146102405761010b565b8063715018a6116100de578063715018a61461017157806386a505351461017b5780638d7af473146101975780638da5cb5b146101b55761010b565b8063013cf08b146101105780630f7e283814610141578063213666a71461014b5780633af32abf14610155575b600080fd5b61012a60048036038101906101259190611878565b6102b6565b60405161013892919061194d565b60405180910390f35b610149610372565b005b6101536104cc565b005b61016f600480360381019061016a91906119db565b6106ad565b005b6101796108c3565b005b61019560048036038101906101909190611878565b61094b565b005b61019f610c46565b6040516101ac9190611a08565b60405180910390f35b6101bd610c4c565b6040516101ca9190611a32565b60405180910390f35b6101db610c75565b6040516101e992919061194d565b60405180910390f35b61020c60048036038101906102079190611ab2565b610dd1565b005b610228600480360381019061022391906119db565b610fe2565b60405161023793929190611b1a565b60405180910390f35b610248611026565b005b610252611180565b60405161025f9190611ca9565b60405180910390f35b6102706112f1565b005b61027a61144b565b005b6102846115a5565b6040516102919190611d42565b60405180910390f35b6102b460048036038101906102af91906119db565b6115b8565b005b600281815481106102c657600080fd5b90600052602060002090600202016000915090508060000180546102e990611d8c565b80601f016020809104026020016040519081016040528092919081815260200182805461031590611d8c565b80156103625780601f1061033757610100808354040283529160200191610362565b820191906000526020600020905b81548152906001019060200180831161034557829003601f168201915b5050505050908060010154905082565b61037a6116af565b73ffffffffffffffffffffffffffffffffffffffff16610398610c4c565b73ffffffffffffffffffffffffffffffffffffffff16146103ee576040517f08c379a00000000000000000000000000000000000000000000000000000000081526004016103e590611e09565b60405180910390fd5b6000600581111561040257610401611ccb565b5b600060149054906101000a900460ff16600581111561042457610423611ccb565b5b14610464576040517f08c379a000000000000000000000000000000000000000000000000000000000815260040161045b90611ec1565b60405180910390fd5b6001600060146101000a81548160ff0219169083600581111561048a57610489611ccb565b5b02179055507f0a97a4ee45751e2abf3e4fc8946939630b11b371ea8ae39ccdc3056e98f5cc3f600060016040516104c2929190611ee1565b60405180910390a1565b6104d46116af565b73ffffffffffffffffffffffffffffffffffffffff166104f2610c4c565b73ffffffffffffffffffffffffffffffffffffffff1614610548576040517f08c379a000000000000000000000000000000000000000000000000000000000815260040161053f90611e09565b60405180910390fd5b6004600581111561055c5761055b611ccb565b5b600060149054906101000a900460ff16600581111561057e5761057d611ccb565b5b146105be576040517f08c379a00000000000000000000000000000000000000000000000000000000081526004016105b590611fa2565b60405180910390fd5b600080600090505b6002805490508110156106435781600282815481106105e8576105e7611fc2565b5b9060005260206000209060020201600101541115610630576002818154811061061457610613611fc2565b5b9060005260206000209060020201600101549150806004819055505b808061063b90612020565b9150506105c6565b506005600060146101000a81548160ff0219169083600581111561066a57610669611ccb565b5b02179055507f0a97a4ee45751e2abf3e4fc8946939630b11b371ea8ae39ccdc3056e98f5cc3f600460056040516106a2929190611ee1565b60405180910390a150565b6106b56116af565b73ffffffffffffffffffffffffffffffffffffffff166106d3610c4c565b73ffffffffffffffffffffffffffffffffffffffff1614610729576040517f08c379a000000000000000000000000000000000000000000000000000000000815260040161072090611e09565b60405180910390fd5b6000600581111561073d5761073c611ccb565b5b600060149054906101000a900460ff16600581111561075f5761075e611ccb565b5b1461079f576040517f08c379a0000000000000000000000000000000000000000000000000000000008152600401610796906120da565b60405180910390fd5b600160008273ffffffffffffffffffffffffffffffffffffffff1673ffffffffffffffffffffffffffffffffffffffff16815260200190815260200160002060000160009054906101000a900460ff161561082f576040517f08c379a00000000000000000000000000000000000000000000000000000000081526004016108269061216c565b60405180910390fd5b60018060008373ffffffffffffffffffffffffffffffffffffffff1673ffffffffffffffffffffffffffffffffffffffff16815260200190815260200160002060000160006101000a81548160ff0219169083151502179055507fb6be2187d059cc2a55fe29e0e503b566e1e0f8c8780096e185429350acffd3dd816040516108b89190611a32565b60405180910390a150565b6108cb6116af565b73ffffffffffffffffffffffffffffffffffffffff166108e9610c4c565b73ffffffffffffffffffffffffffffffffffffffff161461093f576040517f08c379a000000000000000000000000000000000000000000000000000000000815260040161093690611e09565b60405180910390fd5b61094960006116b7565b565b60011515600160003373ffffffffffffffffffffffffffffffffffffffff1673ffffffffffffffffffffffffffffffffffffffff16815260200190815260200160002060000160009054906101000a900460ff161515146109e1576040517f08c379a00000000000000000000000000000000000000000000000000000000081526004016109d8906121d8565b60405180910390fd5b600360058111156109f5576109f4611ccb565b5b600060149054906101000a900460ff166005811115610a1757610a16611ccb565b5b14610a57576040517f08c379a0000000000000000000000000000000000000000000000000000000008152600401610a4e9061226a565b60405180910390fd5b600160003373ffffffffffffffffffffffffffffffffffffffff1673ffffffffffffffffffffffffffffffffffffffff16815260200190815260200160002060000160019054906101000a900460ff1615610ae7576040517f08c379a0000000000000000000000000000000000000000000000000000000008152600401610ade906122d6565b60405180910390fd5b600354811115610b2c576040517f08c379a0000000000000000000000000000000000000000000000000000000008152600401610b2390612342565b60405180910390fd5b600160028281548110610b4257610b41611fc2565b5b90600052602060002090600202016001016000828254610b629190612362565b9250508190555060018060003373ffffffffffffffffffffffffffffffffffffffff1673ffffffffffffffffffffffffffffffffffffffff16815260200190815260200160002060000160016101000a81548160ff02191690831515021790555080600160003373ffffffffffffffffffffffffffffffffffffffff1673ffffffffffffffffffffffffffffffffffffffff168152602001908152602001600020600101819055507f4d99b957a2bc29a30ebd96a7be8e68fe50a3c701db28a91436490b7d53870ca43382604051610c3b9291906123b8565b60405180910390a150565b60035481565b60008060009054906101000a900473ffffffffffffffffffffffffffffffffffffffff16905090565b60606000600580811115610c8c57610c8b611ccb565b5b600060149054906101000a900460ff166005811115610cae57610cad611ccb565b5b14610cee576040517f08c379a0000000000000000000000000000000000000000000000000000000008152600401610ce590612453565b60405180910390fd5b600260045481548110610d0457610d03611fc2565b5b9060005260206000209060020201600001600260045481548110610d2b57610d2a611fc2565b5b906000526020600020906002020160010154818054610d4990611d8c565b80601f0160208091040260200160405190810160405280929190818152602001828054610d7590611d8c565b8015610dc25780601f10610d9757610100808354040283529160200191610dc2565b820191906000526020600020905b815481529060010190602001808311610da557829003601f168201915b50505050509150915091509091565b60011515600160003373ffffffffffffffffffffffffffffffffffffffff1673ffffffffffffffffffffffffffffffffffffffff16815260200190815260200160002060000160009054906101000a900460ff16151514610e67576040517f08c379a0000000000000000000000000000000000000000000000000000000008152600401610e5e906121d8565b60405180910390fd5b60016005811115610e7b57610e7a611ccb565b5b600060149054906101000a900460ff166005811115610e9d57610e9c611ccb565b5b14610edd576040517f08c379a0000000000000000000000000000000000000000000000000000000008152600401610ed4906124e5565b60405180910390fd5b6002604051806040016040528084848080601f016020809104026020016040519081016040528093929190818152602001838380828437600081840152601f19601f820116905080830192505050505050508152602001600081525090806001815401808255809150506001900390600052602060002090600202016000909190919091506000820151816000019080519060200190610f7e92919061177b565b506020820151816001015550507f92e393e9b54e2f801d3ea4beb0c5e71a21cc34a5d34b77d0fb8a3aa1650dc18f600354604051610fbc9190611a08565b60405180910390a1600160036000828254610fd79190612362565b925050819055505050565b60016020528060005260406000206000915090508060000160009054906101000a900460ff16908060000160019054906101000a900460ff16908060010154905083565b61102e6116af565b73ffffffffffffffffffffffffffffffffffffffff1661104c610c4c565b73ffffffffffffffffffffffffffffffffffffffff16146110a2576040517f08c379a000000000000000000000000000000000000000000000000000000000815260040161109990611e09565b60405180910390fd5b600360058111156110b6576110b5611ccb565b5b600060149054906101000a900460ff1660058111156110d8576110d7611ccb565b5b14611118576040517f08c379a000000000000000000000000000000000000000000000000000000000815260040161110f9061259d565b60405180910390fd5b6004600060146101000a81548160ff0219169083600581111561113e5761113d611ccb565b5b02179055507f0a97a4ee45751e2abf3e4fc8946939630b11b371ea8ae39ccdc3056e98f5cc3f60036004604051611176929190611ee1565b60405180910390a1565b6060600060028054905067ffffffffffffffff8111156111a3576111a26125bd565b5b6040519080825280602002602001820160405280156111dc57816020015b6111c9611801565b8152602001906001900390816111c15790505b50905060005b6002805490508110156112e9576002818154811061120357611202611fc2565b5b906000526020600020906002020160405180604001604052908160008201805461122c90611d8c565b80601f016020809104026020016040519081016040528092919081815260200182805461125890611d8c565b80156112a55780601f1061127a576101008083540402835291602001916112a5565b820191906000526020600020905b81548152906001019060200180831161128857829003601f168201915b505050505081526020016001820154815250508282815181106112cb576112ca611fc2565b5b602002602001018190525080806112e190612020565b9150506111e2565b508091505090565b6112f96116af565b73ffffffffffffffffffffffffffffffffffffffff16611317610c4c565b73ffffffffffffffffffffffffffffffffffffffff161461136d576040517f08c379a000000000000000000000000000000000000000000000000000000000815260040161136490611e09565b60405180910390fd5b6001600581111561138157611380611ccb565b5b600060149054906101000a900460ff1660058111156113a3576113a2611ccb565b5b146113e3576040517f08c379a00000000000000000000000000000000000000000000000000000000081526004016113da90612684565b60405180910390fd5b6002600060146101000a81548160ff0219169083600581111561140957611408611ccb565b5b02179055507f0a97a4ee45751e2abf3e4fc8946939630b11b371ea8ae39ccdc3056e98f5cc3f60016002604051611441929190611ee1565b60405180910390a1565b6114536116af565b73ffffffffffffffffffffffffffffffffffffffff16611471610c4c565b73ffffffffffffffffffffffffffffffffffffffff16146114c7576040517f08c379a00000000000000000000000000000000000000000000000000000000081526004016114be90611e09565b60405180910390fd5b600260058111156114db576114da611ccb565b5b600060149054906101000a900460ff1660058111156114fd576114fc611ccb565b5b1461153d576040517f08c379a00000000000000000000000000000000000000000000000000000000081526004016115349061273c565b60405180910390fd5b6003600060146101000a81548160ff0219169083600581111561156357611562611ccb565b5b02179055507f0a97a4ee45751e2abf3e4fc8946939630b11b371ea8ae39ccdc3056e98f5cc3f6002600360405161159b929190611ee1565b60405180910390a1565b600060149054906101000a900460ff1681565b6115c06116af565b73ffffffffffffffffffffffffffffffffffffffff166115de610c4c565b73ffffffffffffffffffffffffffffffffffffffff1614611634576040517f08c379a000000000000000000000000000000000000000000000000000000000815260040161162b90611e09565b60405180910390fd5b600073ffffffffffffffffffffffffffffffffffffffff168173ffffffffffffffffffffffffffffffffffffffff16036116a3576040517f08c379a000000000000000000000000000000000000000000000000000000000815260040161169a906127ce565b60405180910390fd5b6116ac816116b7565b50565b600033905090565b60008060009054906101000a900473ffffffffffffffffffffffffffffffffffffffff169050816000806101000a81548173ffffffffffffffffffffffffffffffffffffffff021916908373ffffffffffffffffffffffffffffffffffffffff1602179055508173ffffffffffffffffffffffffffffffffffffffff168173ffffffffffffffffffffffffffffffffffffffff167f8be0079c531659141344cd1fd0a4f28419497f9722a3daafe3b4186f6b6457e060405160405180910390a35050565b82805461178790611d8c565b90600052602060002090601f0160209004810192826117a957600085556117f0565b82601f106117c257805160ff19168380011785556117f0565b828001600101855582156117f0579182015b828111156117ef5782518255916020019190600101906117d4565b5b5090506117fd919061181b565b5090565b604051806040016040528060608152602001600081525090565b5b8082111561183457600081600090555060010161181c565b5090565b600080fd5b600080fd5b6000819050919050565b61185581611842565b811461186057600080fd5b50565b6000813590506118728161184c565b92915050565b60006020828403121561188e5761188d611838565b5b600061189c84828501611863565b91505092915050565b600081519050919050565b600082825260208201905092915050565b60005b838110156118df5780820151818401526020810190506118c4565b838111156118ee576000848401525b50505050565b6000601f19601f8301169050919050565b6000611910826118a5565b61191a81856118b0565b935061192a8185602086016118c1565b611933816118f4565b840191505092915050565b61194781611842565b82525050565b600060408201905081810360008301526119678185611905565b9050611976602083018461193e565b9392505050565b600073ffffffffffffffffffffffffffffffffffffffff82169050919050565b60006119a88261197d565b9050919050565b6119b88161199d565b81146119c357600080fd5b50565b6000813590506119d5816119af565b92915050565b6000602082840312156119f1576119f0611838565b5b60006119ff848285016119c6565b91505092915050565b6000602082019050611a1d600083018461193e565b92915050565b611a2c8161199d565b82525050565b6000602082019050611a476000830184611a23565b92915050565b600080fd5b600080fd5b600080fd5b60008083601f840112611a7257611a71611a4d565b5b8235905067ffffffffffffffff811115611a8f57611a8e611a52565b5b602083019150836001820283011115611aab57611aaa611a57565b5b9250929050565b60008060208385031215611ac957611ac8611838565b5b600083013567ffffffffffffffff811115611ae757611ae661183d565b5b611af385828601611a5c565b92509250509250929050565b60008115159050919050565b611b1481611aff565b82525050565b6000606082019050611b2f6000830186611b0b565b611b3c6020830185611b0b565b611b49604083018461193e565b949350505050565b600081519050919050565b600082825260208201905092915050565b6000819050602082019050919050565b600082825260208201905092915050565b6000611b99826118a5565b611ba38185611b7d565b9350611bb38185602086016118c1565b611bbc816118f4565b840191505092915050565b611bd081611842565b82525050565b60006040830160008301518482036000860152611bf38282611b8e565b9150506020830151611c086020860182611bc7565b508091505092915050565b6000611c1f8383611bd6565b905092915050565b6000602082019050919050565b6000611c3f82611b51565b611c498185611b5c565b935083602082028501611c5b85611b6d565b8060005b85811015611c975784840389528151611c788582611c13565b9450611c8383611c27565b925060208a01995050600181019050611c5f565b50829750879550505050505092915050565b60006020820190508181036000830152611cc38184611c34565b905092915050565b7f4e487b7100000000000000000000000000000000000000000000000000000000600052602160045260246000fd5b60068110611d0b57611d0a611ccb565b5b50565b6000819050611d1c82611cfa565b919050565b6000611d2c82611d0e565b9050919050565b611d3c81611d21565b82525050565b6000602082019050611d576000830184611d33565b92915050565b7f4e487b7100000000000000000000000000000000000000000000000000000000600052602260045260246000fd5b60006002820490506001821680611da457607f821691505b602082108103611db757611db6611d5d565b5b50919050565b7f4f776e61626c653a2063616c6c6572206973206e6f7420746865206f776e6572600082015250565b6000611df36020836118b0565b9150611dfe82611dbd565b602082019050919050565b60006020820190508181036000830152611e2281611de6565b9050919050565b7f7468652063757272656e7420776f726b666c6f772073746174757320646f657360008201527f206e6f7420616c6c6f7720796f7520746f20737461727420726567697374657260208201527f696e672070726f706f73616c7300000000000000000000000000000000000000604082015250565b6000611eab604d836118b0565b9150611eb682611e29565b606082019050919050565b60006020820190508181036000830152611eda81611e9e565b9050919050565b6000604082019050611ef66000830185611d33565b611f036020830184611d33565b9392505050565b7f7468652063757272656e7420776f726b666c6f772073746174757320646f657360008201527f206e6f7420616c6c6f7720796f7520746f20636f756e7465642074686520766f60208201527f7465730000000000000000000000000000000000000000000000000000000000604082015250565b6000611f8c6043836118b0565b9150611f9782611f0a565b606082019050919050565b60006020820190508181036000830152611fbb81611f7f565b9050919050565b7f4e487b7100000000000000000000000000000000000000000000000000000000600052603260045260246000fd5b7f4e487b7100000000000000000000000000000000000000000000000000000000600052601160045260246000fd5b600061202b82611842565b91507fffffffffffffffffffffffffffffffffffffffffffffffffffffffffffffffff820361205d5761205c611ff1565b5b600182019050919050565b7f74686520726567697374726174696f6e20706572696f6420666f72207468652060008201527f77686974656c697374206973206f766572000000000000000000000000000000602082015250565b60006120c46031836118b0565b91506120cf82612068565b604082019050919050565b600060208201905081810360008301526120f3816120b7565b9050919050565b7f5468697320766f7465727320697320616c72656164792072656769737465726560008201527f6400000000000000000000000000000000000000000000000000000000000000602082015250565b60006121566021836118b0565b9150612161826120fa565b604082019050919050565b6000602082019050818103600083015261218581612149565b9050919050565b7f746869732061646472657373206973206e6f742077686974656c697374656400600082015250565b60006121c2601f836118b0565b91506121cd8261218c565b602082019050919050565b600060208201905081810360008301526121f1816121b5565b9050919050565b7f7468652063757272656e7420776f726b666c6f772073746174757320646f657360008201527f206e6f7420616c6c6f7720796f7520746f20766f746500000000000000000000602082015250565b60006122546036836118b0565b915061225f826121f8565b604082019050919050565b6000602082019050818103600083015261228381612247565b9050919050565b7f7468697320616464726573732068617320616c726561647920766f7465640000600082015250565b60006122c0601e836118b0565b91506122cb8261228a565b602082019050919050565b600060208201905081810360008301526122ef816122b3565b9050919050565b7f746869732070726f706f73616c20646f6573206e6f7420657873697400000000600082015250565b600061232c601c836118b0565b9150612337826122f6565b602082019050919050565b6000602082019050818103600083015261235b8161231f565b9050919050565b600061236d82611842565b915061237883611842565b9250827fffffffffffffffffffffffffffffffffffffffffffffffffffffffffffffffff038211156123ad576123ac611ff1565b5b828201905092915050565b60006040820190506123cd6000830185611a23565b6123da602083018461193e565b9392505050565b7f7468652063757272656e7420776f726b666c6f772073746174757320646f657360008201527f206e6f7420616c6c6f7720796f7520746f20676574207468652077696e6e6572602082015250565b600061243d6040836118b0565b9150612448826123e1565b604082019050919050565b6000602082019050818103600083015261246c81612430565b9050919050565b7f726567697374726174696f6e206f662070726f706f73616c73206973206e6f7460008201527f20616c7265616479206f70656e206f7220616c726561647920636c6f73650000602082015250565b60006124cf603e836118b0565b91506124da82612473565b604082019050919050565b600060208201905081810360008301526124fe816124c2565b9050919050565b7f7468652063757272656e7420776f726b666c6f772073746174757320646f657360008201527f206e6f7420616c6c6f7720796f7520746f2073746f7020766f74696e6720736560208201527f7373696f6e000000000000000000000000000000000000000000000000000000604082015250565b60006125876045836118b0565b915061259282612505565b606082019050919050565b600060208201905081810360008301526125b68161257a565b9050919050565b7f4e487b7100000000000000000000000000000000000000000000000000000000600052604160045260246000fd5b7f7468652063757272656e7420776f726b666c6f772073746174757320646f657360008201527f206e6f7420616c6c6f7720796f7520746f2073746f702072656769737465726960208201527f6e672070726f706f73616c730000000000000000000000000000000000000000604082015250565b600061266e604c836118b0565b9150612679826125ec565b606082019050919050565b6000602082019050818103600083015261269d81612661565b9050919050565b7f7468652063757272656e7420776f726b666c6f772073746174757320646f657360008201527f206e6f7420616c6c6f7720796f7520746f20737461727420766f74696e67207360208201527f657373696f6e0000000000000000000000000000000000000000000000000000604082015250565b60006127266046836118b0565b9150612731826126a4565b606082019050919050565b6000602082019050818103600083015261275581612719565b9050919050565b7f4f776e61626c653a206e6577206f776e657220697320746865207a65726f206160008201527f6464726573730000000000000000000000000000000000000000000000000000602082015250565b60006127b86026836118b0565b91506127c38261275c565b604082019050919050565b600060208201905081810360008301526127e7816127ab565b905091905056fea264697066735822122032756820075cc0d972c4908961ec707e378b3974c098544026c28cde4ee3121464736f6c634300080d0033",
  "immutableReferences": {},
  "source": "// SPDX-License-Identifier: MIT\r\n\r\npragma solidity 0.8.13;\r\nimport \"@openzeppelin/contracts/access/Ownable.sol\";\r\n\r\ncontract Voting is Ownable {\r\n\r\n    struct Voter {\r\n        bool isRegistered;\r\n        bool hasVoted;\r\n        uint256 votedProposalId;\r\n    }\r\n\r\n    struct Proposal {\r\n        string description;\r\n        uint256 voteCount;\r\n    }\r\n\r\n    enum WorkflowStatus {\r\n        RegisteringVoters,\r\n        ProposalsRegistrationStarted,\r\n        ProposalsRegistrationEnded,\r\n        VotingSessionStarted,\r\n        VotingSessionEnded,\r\n        VotesTallied\r\n    }\r\n\r\n    WorkflowStatus public currentStatus = WorkflowStatus.RegisteringVoters;\r\n\r\n    mapping(address => Voter) public voters;\r\n    Proposal[] public proposals;\r\n    uint256 public numberOfProposals;\r\n    uint256 winningProposalId;\r\n\r\n    \r\n    event VoterRegistered(address voterAddress);    \r\n    event WorkflowStatusChange(WorkflowStatus previousStatus,\r\n    WorkflowStatus newStatus);\r\n    event ProposalRegistered(uint256 proposalId);    \r\n    event Voted(address voter, uint256 proposalId);\r\n\r\n    \r\n    \r\n    function isWhitelisted(address _address) external onlyOwner {                \r\n        require(currentStatus == WorkflowStatus.RegisteringVoters,\"the registration period for the whitelist is over\");\r\n        require(!voters[_address].isRegistered,\"This voters is already registered\");\r\n        \r\n        voters[_address].isRegistered = true;\r\n        \r\n        emit VoterRegistered(_address);\r\n    }\r\n\r\n\r\n    function startProposalRegistration() external onlyOwner {\r\n        require(currentStatus == WorkflowStatus.RegisteringVoters,\"the current workflow status does not allow you to start registering proposals\");\r\n        \r\n        currentStatus = WorkflowStatus.ProposalsRegistrationStarted;\r\n        \r\n        emit WorkflowStatusChange(WorkflowStatus.RegisteringVoters, WorkflowStatus.ProposalsRegistrationStarted);\r\n    }\r\n\r\n\r\n    function depositProposal(string calldata _proposal) external {\r\n        require(voters[msg.sender].isRegistered == true, \"this address is not whitelisted\");\r\n        require(currentStatus == WorkflowStatus.ProposalsRegistrationStarted, \r\n        \"registration of proposals is not already open or already close\");\r\n\r\n        proposals.push(Proposal({description: _proposal, voteCount: 0}));\r\n\r\n        emit ProposalRegistered(numberOfProposals);\r\n        numberOfProposals += 1;\r\n    }\r\n\r\n    function getArrayOfProposals() external view returns (Proposal[] memory) {\r\n        Proposal[] memory arrayOfProposals = new Proposal[](proposals.length);\r\n        for (uint256 i = 0; i < proposals.length; i++) {\r\n            arrayOfProposals[i] = proposals[i];\r\n        }\r\n        return arrayOfProposals;\r\n    }\r\n\r\n    function endProposalRegistration() external onlyOwner {\r\n        require(currentStatus == WorkflowStatus.ProposalsRegistrationStarted,\r\n        \"the current workflow status does not allow you to stop registering proposals\"\r\n        );\r\n        currentStatus = WorkflowStatus.ProposalsRegistrationEnded;\r\n        emit WorkflowStatusChange(WorkflowStatus.ProposalsRegistrationStarted, WorkflowStatus.ProposalsRegistrationEnded);\r\n    }\r\n\r\n    function startVotingSession() external onlyOwner {\r\n        require(currentStatus == WorkflowStatus.ProposalsRegistrationEnded, \"the current workflow status does not allow you to start voting session\");\r\n        currentStatus = WorkflowStatus.VotingSessionStarted;\r\n        emit WorkflowStatusChange(\r\n            WorkflowStatus.ProposalsRegistrationEnded,\r\n            WorkflowStatus.VotingSessionStarted\r\n        );\r\n    }\r\n\r\n    function voteFor(uint256 _proposalId) external {\r\n        require(voters[msg.sender].isRegistered == true, \"this address is not whitelisted\");\r\n        require(currentStatus == WorkflowStatus.VotingSessionStarted, \"the current workflow status does not allow you to vote\");\r\n        require(!voters[msg.sender].hasVoted, \"this address has already voted\");\r\n        require(_proposalId <= numberOfProposals, \"this proposal does not exsit\");\r\n\r\n        proposals[_proposalId].voteCount += 1;\r\n        voters[msg.sender].hasVoted = true;\r\n        voters[msg.sender].votedProposalId = _proposalId;\r\n\r\n        emit Voted(msg.sender, _proposalId);\r\n    }\r\n\r\n\r\n    function endVotingSession() external onlyOwner {\r\n        require(currentStatus == WorkflowStatus.VotingSessionStarted, \"the current workflow status does not allow you to stop voting session\");\r\n        currentStatus = WorkflowStatus.VotingSessionEnded;\r\n        emit WorkflowStatusChange(\r\n            WorkflowStatus.VotingSessionStarted,\r\n            WorkflowStatus.VotingSessionEnded\r\n        );\r\n    }\r\n\r\n\r\n    function countedVotes() external onlyOwner {\r\n        require(currentStatus == WorkflowStatus.VotingSessionEnded, \"the current workflow status does not allow you to counted the votes\");\r\n\r\n        uint256 voteMax;\r\n\r\n        for (uint256 i = 0; i < proposals.length; i++) {\r\n            // simplification, ne prends pas en compte la possibilit d'une gali\r\n            if (proposals[i].voteCount > voteMax) {\r\n                voteMax = proposals[i].voteCount;\r\n                winningProposalId = i;\r\n            }\r\n        }\r\n        currentStatus = WorkflowStatus.VotesTallied;\r\n        emit WorkflowStatusChange(WorkflowStatus.VotingSessionEnded, WorkflowStatus.VotesTallied);\r\n    }\r\n\r\n    function getWinner() external view returns (string memory, uint256) {\r\n        require(currentStatus == WorkflowStatus.VotesTallied,\"the current workflow status does not allow you to get the winner\");\r\n        return (proposals[winningProposalId].description,proposals[winningProposalId].voteCount);\r\n    }\r\n}",
  "sourcePath": "C:\\Users\\juwol\\OneDrive\\Bureau\\dev\\eth\\alyra\\Rendu4\\contracts\\Voting.sol",
  "compiler": {
    "name": "solc",
    "version": "0.8.13+commit.abaa5c0e.Emscripten.clang"
  },
  "schemaVersion": "3.4.5",
  "updatedAt": "2022-03-28T20:52:02.124Z",
  "networkType": "ethereum",
  "devdoc": {
    "kind": "dev",
    "methods": {
      "owner()": {
        "details": "Returns the address of the current owner."
      },
      "renounceOwnership()": {
        "details": "Leaves the contract without owner. It will not be possible to call `onlyOwner` functions anymore. Can only be called by the current owner. NOTE: Renouncing ownership will leave the contract without an owner, thereby removing any functionality that is only available to the owner."
      },
      "transferOwnership(address)": {
        "details": "Transfers ownership of the contract to a new account (`newOwner`). Can only be called by the current owner."
      }
    },
    "version": 1
  },
  "userdoc": {
    "kind": "user",
    "methods": {},
    "version": 1
  }
}